{
  "transactions": [
    {
      "hash": "0xc51c1f59172424e3087386ac74d926faab0cfbdf5152ecfc3ef6d7181fce8f2a",
      "transactionType": "CALL",
      "contractName": null,
      "contractAddress": "0x683187290ce1dfe4cb2b2eea023419312102a76f",
      "function": "setPrefix(string)",
      "arguments": [
        "Bonjour"
      ],
      "transaction": {
        "from": "0xdbc29e79b2b3b62c015ab598d0bb86681313d90f",
        "to": "0x683187290ce1dfe4cb2b2eea023419312102a76f",
        "gas": "0xb5d7",
        "value": "0x0",
        "input": "0x85cb593b00000000000000000000000000000000000000000000000000000000000000200000000000000000000000000000000000000000000000000000000000000007426f6e6a6f757200000000000000000000000000000000000000000000000000",
        "nonce": "0x9b",
        "chainId": "0xaa36a7"
      },
      "additionalContracts": [],
      "isFixedGasLimit": false
    }
  ],
  "receipts": [
    {
      "status": "0x1",
      "cumulativeGasUsed": "0x13b5b8f",
      "logs": [
        {
          "address": "0x683187290ce1dfe4cb2b2eea023419312102a76f",
          "topics": [
            "0xf03b4d2b775041d421e90e1326e2cb7c45e6a9bc36cbde186901b0ab71fdad05"
          ],
          "data": "0x00000000000000000000000000000000000000000000000000000000000000400000000000000000000000000000000000000000000000000000000000000080000000000000000000000000000000000000000000000000000000000000000548656c6c6f0000000000000000000000000000000000000000000000000000000000000000000000000000000000000000000000000000000000000000000007426f6e6a6f757200000000000000000000000000000000000000000000000000",
          "blockHash": "0x5130a7424880fb63659249cfdb52ba83614ce53e6d60718064e75b666ab5a691",
          "blockNumber": "0x86ae44",
          "blockTimestamp": "0x68811be8",
          "transactionHash": "0xc51c1f59172424e3087386ac74d926faab0cfbdf5152ecfc3ef6d7181fce8f2a",
          "transactionIndex": "0x99",
          "logIndex": "0x137",
          "removed": false
        }
      ],
      "logsBloom": "0x00000000000000004000000000000000000000000000000000000000000000000000000000000000000000000000000000020000000000000000000000000000200000000000000000000000000000000000000000000000000000000000000000000000000000000000000000000000000000000000000000000000000100000000000000000000000000000000000000000000000000000000000000000000000000000000000000000000000001000000000000010000000000000000000000000000000000000000000000000000000000000000000000000000000000000000000000000000000000000000000000000000000000000000000000000000",
      "type": "0x2",
      "transactionHash": "0xc51c1f59172424e3087386ac74d926faab0cfbdf5152ecfc3ef6d7181fce8f2a",
      "transactionIndex": "0x99",
      "blockHash": "0x5130a7424880fb63659249cfdb52ba83614ce53e6d60718064e75b666ab5a691",
      "blockNumber": "0x86ae44",
      "gasUsed": "0x83a7",
      "effectiveGasPrice": "0x42af45d4",
      "from": "0xdbc29e79b2b3b62c015ab598d0bb86681313d90f",
      "to": "0x683187290ce1dfe4cb2b2eea023419312102a76f",
      "contractAddress": null
    }
  ],
  "libraries": [],
  "pending": [],
  "returns": {},
  "timestamp": 1753291753,
  "chain": 11155111,
  "commit": "b67de6b"
}